:100000000C94D5000C94FD000C94FD000C94FD00A4
:100010000C94FD000C94FD000C94FD000C94FD006C
:100020000C94FD000C94FD000C9480030C94F203DE
:100030000C94FD000C94FD000C94FD000C94FD004C
:100040000C94FD000C94FD000C94FD000C94FD003C
:100050000C94FD000C94FD000C94FD000C94AD0775
:100060000C94FD000C94BC060C9496060C94FD00B8
:100070000C94FD000C94FD000C94FD000C94FD000C
:100080000C94FD000C94FD000C94FD000C94FD00FC
:100090000C94FD000C94FD000C94FD000C94FD00EC
:1000A0000C94FD000C94FD000C94FD00910C940C3C
:1000B000830C870C8B0CB50CB50CB50C980C9C0CF8
:1000C000A00CA60CAA0CB50CB00C080B0002020286
:1000D00001000904000001020200000524001001D3
:1000E0000524010101042402060524060001070578
:1000F000810310004009040100020A000000070506
:1001000002024000000705830240000004030904C6
:1001100012010002EF0201404F1B06920001010292
:100120000301537061726B46756E00537061726BA0
:1001300046756E2050726F204D6963726F0000002B
:100140000000250028002B002E00310004040404C8
:10015000040304050202020204030202020206066C
:100160000606060604040202020404040802011042
:1001700040804010204080408008020401804020E0
:1001800010020110801020404020000000020009F1
:100190000F0000030401000C00000000000000003C
:1001A00000000000000000009E0F11241FBECFEFD2
:1001B000DAE0DEBFCDBF14E0A0E0B1E0E8ECF4E2AD
:1001C00002C005900D92A831B107D9F725E0A8E14A
:1001D000B4E001C01D92A235B207E1F710E0C5ED11
:1001E000D0E004C02197FE010E944E12C43DD10709
:1001F000C9F70E940D0E0C9462120C9400004091FD
:100200001F045091200420911D0430911E044217B8
:100210005307B4F49091E8009570E1F39091E800F1
:1002200092FD19C08093F10080911F0490912004E9
:1002300001968F739927892B19F48EEF8093E8002C
:1002400080911F0490912004019690932004809344
:100250001F0481E0089580E00895CF92DF92EF922D
:10026000FF920F931F93CF93DF931F92CDB7DEB70B
:10027000182F062FE42E862F880F8E5F99830E94F9
:10028000FF0083E00E94FF00F12EC12E9981D92E3C
:100290008C2D8F19801798F4F601E7FE02C0849127
:1002A00001C080810E94FF00182F80E00E94FF00A3
:1002B0008123FFEFCF1ADF0A8111EACF01C081E06D
:1002C0000F90DF91CF911F910F91FF90EF90DF90F2
:1002D000CF900895DF92EF92FF920F931F93CF93E9
:1002E000DF93D82E8A017B01E40EF51EEB01CE15BB
:1002F000DF0571F0D7FE03C0FE01849101C0888143
:100300000E94FF0021968111F2CF8FEF9FEF01C075
:10031000C801DF91CF911F910F91FF90EF90DF9077
:100320000895615030F02091F100FC012083019686
:10033000F8CF289884E6809325040895CF92DF9221
:10034000EF92FF920F931F93CF93DF936C017A018B
:100350008B01C0E0D0E0CE15DF0589F0D8016D91AA
:100360008D01D601ED91FC910190F081E02DC60147
:100370000995892B11F47E0102C02196ECCFC701AB
:10038000DF91CF911F910F91FF90EF90DF90CF9071
:100390000895FC01538D448D252F30E0842F90E08B
:1003A000821B930B541710F0CF9608950197089570
:1003B000FC01918D828D981761F0828DDF01A80F6D
:1003C000B11D5D968C91928D9F5F9F73928F90E08F
:1003D00008958FEF9FEF0895FC01918D828D9817FE
:1003E00031F0828DE80FF11D858D90E008958FEF3B
:1003F0009FEF0895FC01918D228D892F90E0805C04
:100400009F4F821B91098F739927089587E394E08A
:100410000E94FA0121E0892B09F420E0822F08953F
:10042000FC01848DDF01A80FB11DA35ABF4F2C9191
:10043000848D90E001968F739927848FA689B78960
:100440002C93A089B1898C9180648C93938D848D39
:10045000981306C00288F389E02D80818F7D808308
:100460000895EF92FF920F931F93CF93DF93EC01C8
:1004700081E0888F9B8D8C8D981305C0E889F98960
:10048000808185FD24C0F62E0B8D10E00F5F1F4F7D
:100490000F731127E02E8C8DE8120CC00FB607FCED
:1004A000FACFE889F989808185FFF5CFCE010E94D6
:1004B0001002F1CF8B8DFE01E80FF11DE35AFF4FC3
:1004C000F0820B8FEA89FB898081806207C0EE8908
:1004D000FF896083E889F98980818064808381E075
:1004E00090E0DF91CF911F910F91FF90EF900895D1
:1004F000CF93DF93EC01888D8823C9F0EA89FB89CB
:10050000808185FD05C0A889B9898C9186FD0FC0C1
:100510000FB607FCF5CF808185FFF2CFA889B98996
:100520008C9185FFEDCFCE010E941002E7CFDF91C5
:10053000CF91089580E090E0892B29F00E94060277
:1005400081110C9400000895CF93DF931F92CDB7D3
:10055000DEB76983DC01ED91FC910280F381E02D2F
:1005600041E050E0BE016F5F7F4F09950F90DF9132
:10057000CF91089583E08093E9008091F200882371
:1005800019F08AE38093E8000895FC01848595853D
:1005900097FD0BC09FB7F89482E08093E9008091AB
:1005A000F2009FBF90E0019608959FB7F89482E013
:1005B0008093E9008091F2009FBF90E00895089534
:1005C00080E090E008953FB7F894809119049091ED
:1005D0001A04A0911B04B0911C0426B5A89B05C069
:1005E0002F3F19F00196A11DB11D3FBFBA2FA92FB2
:1005F000982F8827820F911DA11DB11DBC01CD012F
:1006000042E0660F771F881F991F4A95D1F708951A
:100610000F931F93CF93DF931F92CDB7DEB782E086
:10062000898342E450E06AEC70E080E80E946A014D
:100630000E94FC0ADC0112960D911C911397011582
:10064000110569F0D801ED91FC910280F381E02D54
:10065000BE016F5F7F4FC801099597FF07C0898171
:100660000F90DF91CF911F910F910895F8010085B0
:100670001185E5CF0E94EB0A90E00895CF93DF93B8
:100680001F92CDB7DEB7FC018485958597FD05C027
:100690002FEF3FEF358724870BC0CE0101960E94D4
:1006A000C10A019719F4898190E002C08FEF9FEF92
:1006B0000F90DF91CF9108950F931F93CF93DF9306
:1006C0001F92CDB7DEB78C01FC018485958597FF1D
:1006D0000EC0CE0101960E94C10A019719F429812A
:1006E00030E002C02FEF3FEFF80135872487F80193
:1006F000848595850F90DF91CF911F910F9108957B
:100700001F920F920FB60F9211248F939F93809197
:10071000E1009091E100937F9093E10083FF0FC08F
:100720001092E90091E09093EB001092EC0092E3BC
:100730009093ED001092260498E09093F00082FFD1
:1007400020C093E09093E9009091F200992319F072
:100750009AE39093E80090912104992339F09091C5
:100760002104915090932104992389F190912504BB
:10077000992339F090912504915090932504992361
:1007800041F184FF10C08091E2008E7E81608093F1
:10079000E2008091E1008F7E8093E100809123044C
:1007A0008E7E806111C080FF16C08091E2008E7E37
:1007B00080618093E2008091E1008E7E8093E10071
:1007C000809123048E7E81608093230404C05D9A0F
:1007D000CDCF289AD6CF9F918F910F900FBE0F90BB
:1007E0001F9018951F920F920FB60F921124CF925F
:1007F000DF92EF92FF920F931F932F933F934F93AC
:100800005F936F937F938F939F93AF93BF93EF9378
:10081000FF93CF93DF93CDB7DEB76C97DEBFCDBF2D
:100820001092E9008091E80083FFEDC168E0CE01FD
:1008300045960E94910182EF8093E8008D8987FFA1
:1008400005C09091E80090FFFCCF03C09EEF90930D
:10085000E800982F907609F0C6C09E892F89188DE0
:1008600091110CC0803829F4809124048093F10008
:1008700002C01092F1001092F10048C1422F50E0E6
:10088000512B913051F4811141C14130510509F092
:100890003DC1809124048D7F0BC0933061F48111A0
:1008A00035C14130510509F031C180912404826085
:1008B000809324042BC1953041F48091E80080FF9F
:1008C000FCCF20682093E30021C1963009F05FC07F
:1008D000EB8CFC8C1092E9001092200410921F0403
:1008E000123091F510921E0410921D040E9408030C
:1008F00099E0BE016F5F7F4FDB01E92F1D92EA9502
:10090000E9F799831A8391E09E8390EA98879AEF9A
:10091000998720911F0430912004275F3F4F3C832B
:100920002B838D831092E9001092200410921F04F3
:10093000F0921E04E0921D0449E050E080E00E9425
:100940006A010E940803E2C0F0921E04E0921D04B6
:100950000E94FC0ADC011296ED90FC901397E114C2
:10096000F10409F4C0C0D701ED91FC910480F58138
:10097000E02DBE016B5E7F4FC7010995009719F00E
:100980000CF0C4C0C7C0F701E084F184E8CF973011
:1009900009F4C0C0983021F481E08093F100B6C022
:1009A000993009F0B3C0837009F0B4C0EDE0F1E014
:1009B00081E021E036E39081992361F08093E900A2
:1009C0002093EB0091919093EC003093ED008F5FBA
:1009D000873089F78EE78093EA001092EA008F89CA
:1009E0008093260493C08B8D9C8D1092E900109209
:1009F000200410921F0490931E0480931D04898D7F
:100A0000811156C08E899D89913A59F4813209F03D
:100A100081C047E050E064E071E080E00E946A013C
:100A200075C0913209F076C0833289F4888D90E0E8
:100A3000982F88272F89822BA0E0B0E080930001B7
:100A400090930101A0930201B09303015FC0803233
:100A500069F48091E80082FFFCCF67E084E091E0D8
:100A60000E9491018BEF8093E80006C0823209F06A
:100A70004DC08F8980930B0180912204882319F047
:100A8000EEEFFAE002C0E0E0F8E08091040190911E
:100A90000501A0910601B0910701803B9440A1059A
:100AA000B10509F07BC080910B0180FF93C076C037
:100AB0000E94FC0ADC0112960D911C9113970115FE
:100AC000110541F1D801ED91FC910190F081E02DEB
:100AD000BE016B5E7F4FC8010995811117C0F801F7
:100AE00000851185ECCF113009F44EC0133091F41C
:100AF0008F89882309F445C0823081F440E862E19F
:100B00008BE291E00E942D01882321F08EEF8093EB
:100B1000E80079C081E28093EB0075C0813029F450
:100B200040E868E082E291E0EDCF833099F70E94DF
:100B3000FC0ADC011296ED90FC9013978E010F5F7A
:100B40001F4F6801E114F10479F0D701ED91FC9198
:100B50000680F781E02DB801C7010995080F111D26
:100B6000F701E084F184EECFD8011C92F6010190E8
:100B70000020E9F73197BF016C197D0940E0C601FB
:100B8000C1CF6CE071E002C060E171E061157105F8
:100B900009F2FB01449150E080E840CF0FB6F89491
:100BA000A895809160008861809360001092600039
:100BB0000FBEA895EE3F2AE0F20739F08091FE0AB9
:100BC0009091FF0A91838083A1CF1092FF0A109227
:100BD000FE0A9CCFEE3F8AE0F80731F080819181D8
:100BE0009093FF0A8093FE0A87E797E791838083BB
:100BF0009BE088E10FB6F894A895809360000FBE43
:100C00009093600083CF6C960FB6F894DEBF0FBE52
:100C1000CDBFDF91CF91FF91EF91BF91AF919F91A8
:100C20008F917F916F915F914F913F912F911F9184
:100C30000F91FF90EF90DF90CF900F900FBE0F902D
:100C40001F9018956115710579F0FB010190002046
:100C5000E9F73197AF01461B570BDC01ED91FC9191
:100C60000280F381E02D099480E090E008954F9296
:100C70005F926F927F92EF92FF920F931F93CF93A9
:100C8000DF93CDB7DEB7A1970FB6F894DEBF0FBEE6
:100C9000CDBF7C01FA01CB0119A2223008F42AE071
:100CA0008E010F5D1F4F422E512C612C712CBF0104
:100CB000A30192010E942C12F901CA0101501109ED
:100CC0006A3014F4605D01C0695CD8016C93232B19
:100CD000242B252B61F7B801C7010E942206A1969B
:100CE0000FB6F894DEBF0FBECDBFDF91CF911F913D
:100CF0000F91FF90EF907F906F905F904F900895CD
:100D000067E373E00C9422060F931F93CF93DF9356
:100D1000EC010E9422068C01CE010E948006800F09
:100D2000911FDF91CF911F910F9108951F920F9204
:100D30000FB60F9211242F933F934F935F936F93AE
:100D40007F938F939F93AF93BF93EF93FF9387E32B
:100D500094E00E941002FF91EF91BF91AF919F919B
:100D60008F917F916F915F914F913F912F910F9054
:100D70000FBE0F901F9018951F920F920FB60F92F3
:100D800011242F938F939F93EF93FF93E091470448
:100D9000F09148048081E0914D04F0914E0482FD71
:100DA00012C09081809150048F5F8F732091510405
:100DB000821751F0E0915004F0E0E95CFB4F958F11
:100DC0008093500401C08081FF91EF919F918F919A
:100DD0002F910F900FBE0F901F9018958F929F929A
:100DE000AF92BF92CF92DF92EF92FF926B017C01A4
:100DF0000E94E3024B015C01C114D104E104F1043F
:100E0000F1F00E94E302DC01CB0188199909AA09DB
:100E1000BB09883E9340A105B10570F321E0C21AD9
:100E2000D108E108F10888EE880E83E0981EA11C25
:100E3000B11CC114D104E104F10419F7DDCFFF9016
:100E4000EF90DF90CF90BF90AF909F908F900895DC
:100E50008F929F92AF92BF92CF92DF92EF92FF92CA
:100E60000F931F93CF93DF935C016B017A01809105
:100E70000B01882309F45BC080912604882309F4C0
:100E800056C08091230480FF05C08091E0008260FD
:100E90008093E000E70110E00AEF83E0882E9AE3F8
:100EA000992E2097D9F10E94EB0A81110AC00150B6
:100EB00009F43DC061E070E080E090E00E94EE0641
:100EC000F0CF282F30E0C217D3070CF48C2F4FB788
:100ED000F8948092E9009091E80095FF1DC0282FBA
:100EE00030E0C21BD30BF601982F915020F0819176
:100EF0008093F100FACFC20ED31E112319F0909205
:100F0000E80009C08091E80085FD06C09092E800E5
:100F100011E0209709F010E04FBFC3CF1111C3CFEC
:100F20005D9884E6809321041E141F0444F081E040
:100F300090E0F5019383828380E090E001C0C701D7
:100F4000DF91CF911F910F91FF90EF90DF90CF90A5
:100F5000BF90AF909F908F9008951F920F920FB601
:100F60000F9211242F933F938F939F93AF93BF932F
:100F70008091270490912804A0912904B0912A041B
:100F80003091180423E0230F2D3720F40196A11D82
:100F9000B11D05C026E8230F0296A11DB11D2093A7
:100FA00018048093270490932804A0932904B093F5
:100FB0002A048091190490911A04A0911B04B09105
:100FC0001C040196A11DB11D8093190490931A046D
:100FD000A0931B04B0931C04BF91AF919F918F917C
:100FE0003F912F910F900FBE0F901F901895CF92A9
:100FF000DF92EF92FF920F931F93FB01008111810B
:1010000022813381DC01A00FB11F13966C911397DD
:101010004C91C62ED12CE12CF12CF42A11964C9136
:101020001197E42A12964C91C701B601742B0C5FFC
:101030001F4F2F4F3F4F00831183228333831F9114
:101040000F91FF90EF90DF90CF9008952F923F92F5
:101050004F925F926F927F928F929F92AF92BF92C8
:10106000CF92DF92EF92FF920F931F93CF93DF9374
:10107000CDB7DEB7C150D2400FB6F894DEBF0FBE79
:10108000CDBF84E0CF5FDD4F8883C150D24061E0A7
:1010900070E0CE018F5F9D4F0E94570B8FB7F89481
:1010A00040912704509128046091290470912A04EA
:1010B0008FBF1A012B0124E6220E311C411C511C4A
:1010C000712C612CB12CC12CDD24D39400E010E0F4
:1010D0002FB7F8948091270490912804A0912904B7
:1010E000B0912A042FBF82159305A405B50508F019
:1010F0006EC0B110A7C1EE24E394F12CEC0EFD1EDE
:10110000E00EF11E80914E0590914F05DC01ED91AE
:10111000FC910084F185E02D0995892BC9F20F5FC0
:101120001F4F80914E0590914F05DC01ED91FC9190
:101130000284F385E02D0995F701808302301105C3
:10114000F9F42981223039F08091500590915105B0
:10115000233051F00EC08A8190E06C01F5E0CF0E93
:10116000D11C782E692E11C0009779F06AE373E0E4
:1011700004C0009751F06BE673E00E94840605C03E
:101180000F3F110511F008F0A3CF0C151D05B9F4A0
:10119000D7018C91833091F4E1E0F0E0EC0FFD1F7A
:1011A000E00FF11F1082809150059091510500973A
:1011B00051F06DE773E00E94840605C06801BFEF3F
:1011C000EB1AFB0A9FCF6801BB24B39481CFB11007
:1011D00039C18091500590915105009711F165E951
:1011E00073E00E9484061DC08091500590915105C6
:1011F000009709F4A3C16CEA73E00E942206809074
:10120000500590905105A70160E070E02AE0C4010C
:101210000E943706C4010E948006E016F10609F418
:1012200062C180E090E0C8970CF40AC1CF5FDE4F46
:101230008881C150D140843009F002C184E090E03F
:10124000A0E0B0E089839A83AB83BC8301E011E026
:101250000C0F1D1F0F5F1F4FBE016F5F7F4FC80137
:101260000E94F7070E94051120E030E048EC52E4AC
:101270000E945B10609324057093250580932605DA
:1012800090932705BE016F5F7F4FC8010E94F7074B
:101290000E94051120E030E048EC52E40E945B100F
:1012A000609328057093290580932A0590932B0558
:1012B00089819A81AB81BC816C017D01E8E0CE0E11
:1012C000D11CE11CF11CE3E0F1E0EC0FFD1FEC0D83
:1012D000FD1D6081E2E0F1E0EC0FFD1FEC0DFD1D56
:1012E000208170E0722B0A96A11DB11D89839A831B
:1012F000AB83BC83072E000C880B990B0E94051151
:1013000020E030E04AE754E40E945B1060932C0533
:1013100070932D0580932E0590932F05BE016F5F6E
:101320007F4FC8010E94F707609330057093310525
:10133000809332059093330589819A81AB81BC817A
:10134000E3E0F1E0EC0FFD1FE80FF91F6081E2E040
:10135000F1E0EC0FFD1FE80FF91F208170E0722B08
:101360000296A11DB11D89839A83AB83BC83072E8E
:10137000000C880B990B0E94051120E030E040E240
:1013800051E40E945B10609334057093350580939F
:10139000360590933705BE016F5F7F4FC8010E94ED
:1013A000F7070E94051120E030E44CE156E40E946A
:1013B0005B10609338057093390580933A059093DC
:1013C0003B05BE016F5F7F4FC8010E94F7070E9477
:1013D000051120E030E44CE156E40E945B1060937C
:1013E0003C0570933D0580933E0590933F058981B0
:1013F0009A81AB81BC810896A11DB11D89839A8316
:10140000AB83BC83BE016F5F7F4FC8010E94F707AB
:101410006093400570934105809342059093430586
:10142000BE016F5F7F4FC8010E94F70760934405BC
:1014300070934505809346059093470581E085C0EC
:1014400080E083C0EEEFFFEFEC0FFD1FEC0DFD1D04
:10145000008110E0102F0027EFEFFFEFEC0FFD1FD2
:10146000EC0DFD1D8081080F111D8091500590919C
:101470005105009791F06DE973E00E942206E0901B
:101480005005F0905105A80160E070E02AE0C70126
:101490000E943706C7010E9480068A80912C5E0157
:1014A000B1E0AB0EBB1EA401BE016D5F7F4FC50155
:1014B0000E945912D501E12CF12CCD018A199B090A
:1014C0008815990508F090CE8D91EF2DFF27E8271C
:1014D000EE0FFF1FED5EFE4F80819181FE2CEE240A
:1014E000E826F926EACF80915005909151050097A2
:1014F00049F167EB73E00E942206B601CE01019626
:101500000E941B0B80915005909151050E9480060E
:1015100062EC73E080915005909151050E94220683
:101520006A8170E061507109C5010E941B0B8091B6
:101530005005909151050E94800604C0E016F10606
:1015400009F06FCE872D962D6ECECF5FDD4F0FB693
:10155000F894DEBF0FBECDBFDF91CF911F910F91E9
:10156000FF90EF90DF90CF90BF90AF909F908F90C3
:101570007F906F905F904F903F902F9008950E94C2
:101580005412FC0180912604811103C08FEF9FEF5C
:1015900008959FB7F89482E08093E9002091F200CB
:1015A00030E01216130614F421E030E02115310565
:1015B00059F0289884E6809325048091F100808377
:1015C0008091F200882319F09FBFC90108958BE62E
:1015D0008093E800F9CF2FB7F89483E08093E90077
:1015E0009091E800892F807295FF04C09091F200DD
:1015F00080E4891B2FBF089580912F0481110DC0B5
:1016000082E080932B0484E080932C0410922E04BB
:1016100010922D0481E080932F048BE294E00895D2
:10162000E091D404F091D5040190F081E02D682F71
:1016300084ED94E00994EF92FF920F931F93CF9360
:10164000DF932091500530915105232B49F18B01F7
:10165000EC017C01809150059091510597012C1B64
:101660003D0B0217130794F0F70141917F0150E001
:1016700060E070E02AE00E94370660ED73E0809140
:101680005005909151050E942206E4CF69E373E072
:10169000DF91CF911F910F91FF90EF900C948406F2
:1016A000DF91CF911F910F91FF90EF900895CF920E
:1016B000DF92EF92FF920F931F93CF93DF93CDB7FB
:1016C000DEB7DA950FB6F894DEBF0FBECDBF8B0143
:1016D000DC019C01260F371FE12CF12CA217B30768
:1016E00079F04D91EF2DFF27E427EE0FFF1FED5E00
:1016F000FE4F40815181FE2CEE24E426F526EECFEC
:10170000013021E012073CF422E029830A8332E011
:10171000C32ED12C07C023E029831A830B8323E037
:10172000C22ED12CA801BC0181E090E08C0F9D1F3E
:101730008C0D9D1D0E9459120C0D1D1DE1E0F0E065
:10174000EC0FFD1FE00FF11FF082FE01E00FF11F13
:10175000E282780183E0E80EF11CFE01E00FF11F48
:1017600083E08383E1E0F0E0EC0FFD1FEE0DFF1D51
:1017700010828091500590915105009749F068EFD3
:1017800073E00E942206B701CE0101960E941B0B56
:1017900080914E0590914F05DC01ED91FC91028006
:1017A000F381E02DA701BE016F5F7F4F0995C7014F
:1017B000D3950FB6F894DEBF0FBECDBFDF91CF91AA
:1017C0001F910F91FF90EF90DF90CF900895CF92EF
:1017D000DF92EF92FF920F931F93F90102E010E066
:1017E00020E030E00083118322833383DC011196F3
:1017F0007C93008111812281338168017901BFEFDF
:10180000CB1ADB0AEB0AFB0AC082D182E282F382A6
:10181000DC01A00FB11F6C93008111812281338103
:10182000680179016FEFC61AD60AE60AF60AC08285
:10183000D182E282F382DC01A00FB11F5C930081B0
:10184000118122813381680179017FEFC71AD70A9C
:10185000E70AF70AC082D182E282F382FC01E00F3C
:10186000F11F40831F910F91FF90EF90DF90CF9079
:1018700008950F931F93CF93DF93CDB7DEB72997CA
:101880000FB6F894DEBF0FBECDBF01E010E020E040
:1018900030E00E831F832887398728E029830E9440
:1018A000CD10AB01BC019E012A5F3F4FCE010196D6
:1018B0000E94E70B65E070E0CE0101960E94570B95
:1018C00029960FB6F894DEBF0FBECDBFDF91CF9142
:1018D0001F910F910895EBE9F1E04491ECE7F1E0FD
:1018E0002491EDE5F1E09491992309F451C044234A
:1018F000E1F150E0FA013197EF30F105B0F5EA5A25
:10190000FF4F0C944E12309180003F7707C030910A
:1019100080003F7D03C030918000377F309380008E
:1019200024C034B53F7702C034B53F7D34BD1DC0FF
:10193000309190003F7707C0309190003F7D03C009
:1019400030919000377F309390000FC03091C000ED
:101950003F7703C03091C0003F7D3093C00005C089
:101960003091C200377F3093C200E92FF0E0EE0FD4
:10197000FF1FE25CFE4FA591B4919FB7F894EC91E4
:10198000811103C020952E2301C02E2B2C939FBFC5
:1019900008950F931F93CF93DF93CDB7DEB72997A9
:1019A0000FB6F894DEBF0FBECDBF01E010E020E01F
:1019B00030E00E831F832887398726E0298320E0C3
:1019C00030E04AE754E40E94BA110E94CD10AB0106
:1019D000BC019E012A5F3F4FCE0101960E94E70B9A
:1019E00065E070E0CE0101960E94570B29960FB674
:1019F000F894DEBF0FBECDBFDF91CF911F910F9145
:101A000008950F931F93CF93DF9300D000D0CDB7ED
:101A1000DEB7AB01BC0177FF1BC08DE249835A835F
:101A20006B837C830E94100B8C0149815A816B81EE
:101A30007C8170956095509541955F4F6F4F7F4FBA
:101A40002AE084ED94E00E943706080F191F06C0B3
:101A50002AE084ED94E00E9437068C0184ED94E046
:101A60000E948006800F911F0F900F900F900F9093
:101A7000DF91CF911F910F9108954F925F926F92D6
:101A80007F928F929F92AF92BF92CF92DF92EF920E
:101A9000FF926B017C019B01AC010E9427128823FD
:101AA00019F06CE074E01AC046015701E894B7F8E9
:101AB0002FEF3FEF4FE75FE7C501B4010E94271208
:101AC000811112C02FEF3FEF4FE75FE7C501B4016F
:101AD0000E945610181644F460E174E084ED94E01E
:101AE0000E9422067C0186C02FEF3FEF4FE75FE4A4
:101AF000C701B6010E94B51118161CF464E174E028
:101B0000EDCF2FEF3FEF4FE75FECC701B6010E942B
:101B1000561087FDF3CF20E030E0A901C701B601E0
:101B20000E94561087FF09C08DE20E94100B5C01D5
:101B3000F7FAF094F7F8F09402C0A12CB12C2AE047
:101B400037ED43EA5BE3C701B6010E94EA0F2B01C0
:101B50003C010E94D4106B017C010E9403119B0187
:101B6000AC01C301B2010E94E90F2B013C012AE044
:101B7000B701A60184ED94E00E9437067C01EA0CCF
:101B8000FB1C8EE20E94100BE80EF91E20E030E0F4
:101B900040E251E4C301B2010E94BA112B013C01A1
:101BA0000E94D4104B01A12CB12C2AE0B501A40154
:101BB00084ED94E00E943706E80EF91EC501B401D9
:101BC0000E9403119B01AC01C301B2010E94E90F05
:101BD00020E030E040E251E40E94BA110E94D410AB
:101BE000AB0160E070E02AE084ED94E00E943706EB
:101BF000E80EF91E84ED94E00E9480068E0D9F1D74
:101C0000FF90EF90DF90CF90BF90AF909F908F901C
:101C10007F906F905F904F900895CF93DF93CDB7F3
:101C2000DEB729970FB6F894DEBF0FBECDBF78940C
:101C300084B5826084BD84B5816084BD85B58260D1
:101C400085BD85B5816085BD80916E008160809382
:101C50006E001092810080918100826080938100EB
:101C600080918100816080938100809180008160FB
:101C70008093800080919100826080939100809198
:101C800091008160809391008091900081608093A9
:101C900090008091C10084608093C1008091C10058
:101CA00082608093C1008091C10081608093C100F7
:101CB0008091C30081608093C3008091C0008260E6
:101CC0008093C0008091C20081608093C2008091A7
:101CD0007A00846080937A0080917A008260809399
:101CE0007A0080917A00816080937A0080917A00F6
:101CF000806880937A001092260410922404109237
:101D000023048091D70081608093D70080EA80937C
:101D1000D80089B5806189BD89B5826089BD09B463
:101D200000FEFDCF61E070E080E090E00E94EE06F2
:101D30008091D8008F7C80618093D8008091E000F2
:101D4000807F8093E0008091E1008E7E8093E100AF
:101D50008DE08093E200559A209AEEEFFFE785919F
:101D600094918B3F9C4D19F481E0809322048FEF76
:101D70009FEF9093E1048093E004E0914704F09199
:101D8000480482E08083E0914304F091440410828F
:101D9000E0914504F091460480E1808310924F0465
:101DA000E0914B04F0914C0486E08083E09149047B
:101DB000F0914A04808180618083E0914904F09130
:101DC0004A04808188608083E0914904F0914A044C
:101DD000808180688083E0914904F0914A04808189
:101DE0008F7D808387E394E090934F0580934E0529
:101DF000C12CD12C7601C39415E00E9426088823BB
:101E000079F162ED73E084ED94E00E9484066091C4
:101E100030057091310580913205909133050E9413
:101E2000010D6091340570913505809136059091D2
:101E300037050E943D0D60913805709139058091FC
:101E40003A0590913B050E943D0D609144057091CB
:101E5000450580914605909147050E94010D06C0F9
:101E600064EE73E084ED94E00E94840660E070E02C
:101E700088EC91E40E94C90C80E00E946B0C68EE33
:101E800073E080E090E00E94EE0660E070E0CB013D
:101E90000E94C90C81E00E946B0C68EE73E080E048
:101EA00090E00E94EE06CE82DF82E886F9861983F2
:101EB0009E012A5F3F4F40E553EC60E070E0CE01A9
:101EC00001960E94E70B65E070E0CE0101960E944A
:101ED000570B68EE73E080E090E00E94EE06CE8241
:101EE000DF82E886F98619839E012A5F3F4F40E032
:101EF00050E0BA01CE0101960E94E70B65E070E068
:101F0000CE0101960E94570B68EE73E080E090E0EE
:101F10000E94EE0660E070E08AE794E40E94390CCB
:101F200068EE73E080E090E00E94EE0660E070E012
:101F3000CB010E94390C0E949A025FCFE7E3F4E0E4
:101F40001382128288EE93E0A0E0B0E08483958350
:101F5000A683B78327E133E0318320832DEC30E083
:101F6000358724872CEC30E03787268728EC30E053
:101F7000318B208B29EC30E0338B228B2AEC30E044
:101F8000358B248B2EEC30E0378B268B118E128E06
:101F9000138E148EE4EDF4E0138212828483958311
:101FA000A683B78389E293E0918380838FEF9FEFCD
:101FB00095878487E4E2F5E013A612A615A614A679
:101FC0008FE790E095A384A397A386A311A610A6FC
:101FD00008955058BB27AA270E9401100C947B112A
:101FE0000E946D1138F00E94741120F039F49F3F67
:101FF00019F426F40C946A110EF4E095E7FB0C94A6
:102000006411E92F0E948C1158F3BA176207730705
:102010008407950720F079F4A6F50C94AE110EF420
:10202000E0950B2EBA2FA02D0B01B90190010C01E8
:10203000CA01A0011124FF27591B99F0593F50F400
:10204000503E68F11A16F040A22F232F342F442758
:10205000585FF3CF469537952795A795F040539550
:10206000C9F77EF41F16BA0B620B730B840BBAF020
:102070009150A1F0FF0FBB1F661F771F881FC2F78B
:102080000EC0BA0F621F731F841F48F4879577959F
:102090006795B795F7959E3F08F0B0CF9395880F59
:1020A00008F09927EE0F9795879508950E944011A3
:1020B00008F481E008950E946F100C947B110E9437
:1020C000741158F00E946D1140F029F45F3F29F01F
:1020D0000C94641151110C94AF110C946A110E946C
:1020E0008C1168F39923B1F3552391F3951B550B8C
:1020F000BB27AA2762177307840738F09F5F5F4FDB
:10210000220F331F441FAA1FA9F335D00E2E3AF019
:10211000E0E832D091505040E695001CCAF72BD031
:10212000FE2F29D0660F771F881FBB1F2617370782
:102130004807AB07B0E809F0BB0B802DBF01FF27B4
:1021400093585F4F3AF09E3F510578F00C9464111C
:102150000C94AF115F3FE4F3983ED4F386957795E6
:102160006795B795F7959F5FC9F7880F911D96956D
:10217000879597F90895E1E0660F771F881FBB1FC9
:10218000621773078407BA0720F0621B730B840B76
:10219000BA0BEE1F88F7E09508950E94D41068945A
:1021A000B1110C94AF1108950E94941188F09F57BB
:1021B00098F0B92F9927B751B0F0E1F0660F771F6B
:1021C000881F991F1AF0BA95C9F714C0B13091F061
:1021D0000E94AE11B1E008950C94AE11672F782FD4
:1021E0008827B85F39F0B93FCCF386957795679526
:1021F000B395D9F73EF490958095709561957F4F92
:102200008F4F9F4F0895E89409C097FB3EF4909537
:102210008095709561957F4F8F4F9F4F9923A9F0BF
:10222000F92F96E9BB279395F6958795779567954E
:10223000B795F111F8CFFAF4BB0F11F460FF1BC092
:102240006F5F7F4F8F4F9F4F16C0882311F096E925
:1022500011C0772321F09EE8872F762F05C06623D3
:1022600071F096E8862F70E060E02AF09A95660F8C
:10227000771F881FDAF7880F9695879597F9089545
:10228000990F0008550FAA0BE0E8FEEF1616170687
:10229000E807F907C0F012161306E407F50798F0EF
:1022A000621B730B840B950B39F40A2661F0232B08
:1022B000242B252B21F408950A2609F4A140A69584
:1022C0008FEF811D811D089597F99F6780E870E069
:1022D00060E008959FEF80EC089500240A9416169C
:1022E000170618060906089500240A941216130604
:1022F000140605060895092E0394000C11F4882392
:1023000052F0BB0F40F4BF2B11F460FF04C06F5FAD
:102310007F4F8F4F9F4F089557FD9058440F551F83
:1023200059F05F3F71F04795880F97FB991F61F057
:102330009F3F79F087950895121613061406551FCE
:10234000F2CF4695F1DF08C0161617061806991F3A
:10235000F1CF86957105610508940895E894BB272F
:1023600066277727CB0197F908950E94401108F45A
:102370008FEF08950E94CD110C947B110E946D1176
:1023800038F00E94741120F0952311F00C94641120
:102390000C946A1111240C94AF110E948C1170F3EB
:1023A000959FC1F3950F50E0551F629FF001729FFA
:1023B000BB27F00DB11D639FAA27F00DB11DAA1F09
:1023C000649F6627B00DA11D661F829F2227B00D56
:1023D000A11D621F739FB00DA11D621F839FA00DE1
:1023E000611D221F749F3327A00D611D231F849F31
:1023F000600D211D822F762F6A2F11249F57504088
:102400009AF0F1F088234AF0EE0FFF1FBB1F661F02
:10241000771F881F91505040A9F79E3F510580F0CB
:102420000C9464110C94AF115F3FE4F3983ED4F325
:10243000869577956795B795F795E7959F5FC1F76F
:10244000FE2B880F911D9695879597F908950E9408
:102450004011880B990B0895A1E21A2EAA1BBB1BF1
:10246000FD010DC0AA1FBB1FEE1FFF1FA217B30760
:10247000E407F50720F0A21BB30BE40BF50B661F76
:10248000771F881F991F1A9469F76095709580953A
:1024900090959B01AC01BD01CF010895EE0FFF1F88
:1024A0000590F491E02D099481E090E0F8940C946B
:1024B0006212FB01DC0102C001900D9241505040BC
:0824C000D8F70895F894FFCF4E
:1024C800FFFFFFFF00E100000000000000C1808165
:1024D80000000000002110422063308440A550C64F
:1024E80060E770088129914AA16BB18CC1ADD1CE4A
:1024F800E1EFF13112100273325222B5529442F7D1
:1025080072D662399318837BB35AA3BDD39CC3FF99
:10251800F3DEE36224433420040114E664C774A4A0
:102528004485546AA54BB528850995EEE5CFF5ACE9
:10253800C58DD55336722611163006D776F66695B0
:1025480056B4465BB77AA719973887DFF7FEE79D39
:10255800D7BCC7C448E5588668A778400861180200
:10256800282338CCC9EDD98EE9AFF9488969990A89
:10257800A92BB9F55AD44AB77A966A711A500A3310
:102588003A122AFDDBDCCBBFFB9EEB799B588B3BD9
:10259800BB1AABA66C877CE44CC55C222C033C6060
:1025A8000C411CAEED8FFDECCDCDDD2AAD0BBD6829
:1025B8008D499D977EB66ED55EF44E133E322E51F0
:1025C8001E700E9FFFBEEFDDDFFCCF1BBF3AAF5979
:1025D8009F788F8891A981CAB1EBA10CD12DC14EEA
:1025E800F16FE18010A100C230E32004502540467D
:1025F800706760B9839893FBA3DAB33DC31CD37F9C
:10260800E35EF3B1029012F322D2323542145277CC
:10261800625672EAB5CBA5A89589856EF54FE52C6B
:10262800D50DC5E234C324A014810466744764241C
:10263800540544DBA7FAB79987B8975FE77EF71D7B
:10264800C73CD7D326F2369106B01657667676156C
:102658004634564CD96DC90EF92FE9C899E9898ACB
:10266800B9ABA94458654806782768C018E10882BC
:1026780038A3287DCB5CDB3FEB1EFBF98BD89BBBDB
:10268800AB9ABB754A545A376A167AF10AD01AB30C
:102698002A923A2EFD0FED6CDD4DCDAABD8BADE82B
:1026A8009DC98D267C076C645C454CA23C832CE05C
:1026B8001CC10C1FEF3EFF5DCF7CDF9BAFBABFD9BB
:1026C8008FF89F176E367E554E745E932EB23ED1AC
:1026D8000EF01E0000000031029E01C9017802FAC6
:1026E80001D801EC0100000000A40228073A03BA4F
:1026F80002C5023E035C030D0A004D6573736167F2
:1027080065206973206C6172676572207468616EF8
:1027180020323536206279746573202D206E6F74EF
:1027280020737570706F7274656400556E76616C95
:1027380069642073746172742062697400456E6400
:10274800206F66206D6573736167652072656163CC
:10275800686564210054696D656F75740053524350
:102768002072656365697665643A20005352432098
:1027780063616C633A200052656365697665643A03
:1027880020005061796C6F6164203A20202020205D
:1027980020007072696E7420766573632076616CB0
:1027A800756573004661696C656420746F206765A0
:1027B8007420646174612100554152542070616332
:1027C8006B6167652073656E643A20006E616E0008
:0827D800696E66006F76660071
:00000001FF
